:020000040800F2
:1000000068080020B501000869420008453F000863
:1000100065420008BD2000085150000800000000A3
:1000200000000000000000000000000099420008ED
:10003000C1200008000000006D4200089B4200083B
:10004000CF010008CF010008CF010008CF01000850
:10005000CF010008CF010008CF010008CF01000840
:10006000CF010008CF010008CF010008CF01000830
:10007000CF010008CF010008CF010008CF01000820
:10008000CF010008CF010008CF010008CF01000810
:10009000CF010008CF010008CF010008CF01000800
:1000A0000D4300082D430008CF0100081D43000840
:1000B0003D430008CF0100084D430008CF01000870
:1000C000CF010008CF010008CF010008CF010008D0
:1000D000CF010008CF0100088D4B0008CF010008B8
:1000E000CF010008CF010008CF01000800F002F89E
:1000F00000F050F80AA090E8000C82448344AAF172
:100100000107DA4501D100F045F8AFF2090EBAE86F
:100110000F0013F0010F18BFFB1A43F0010318473B
:100120005860000078600000103A24BF78C878C199
:10013000FAD8520724BF30C830C144BF04680C60ED
:10014000704700000023002400250026103A28BF35
:1001500078C1FBD8520728BF30C148BF0B60704739
:10016000662905F00787732900F091840020704705
:100170001FB500F0F1FC04000020002105F0BEF8DE
:10018000401C60600020002105F0CEF8E0601FBD3B
:1001900010B510BD00F03CFE1146FFF7E9FF05F079
:1001A00077F800F08EFE03B4FFF7F2FF03BC01F016
:1001B0000DF900000948804709480047FEE7FEE7BF
:1001C000FEE7FEE7FEE7FEE7FEE7FEE7FEE7FEE707
:1001D00004480549054A064B7047000009430008DA
:1001E000ED00000868020020680800206804002074
:1001F000680400200FB41CB50C0007AA009001D0C1
:100200002044401E074B7B4469460190069800F04D
:100210000CFC002C03D06946002000F019FC1CBC2B
:100220005DF814FB5108000070B50C460546012A24
:1002300005D02878800600D5EA69002302E0012372
:1002400005E05B1C934202D2E05C0028F9D1A8696A
:10025000E618C01AA861286A184428622846AFF335
:10026000008004E0D5E9012114F8010B9047B44265
:10027000F8D32846AFF3008070BD2DE9F0474FF06A
:10028000000A89460446C0F820A02046E168884755
:10029000002876D0252806D0D4E901219047206A8D
:1002A000401C2062F1E7E168204600258847C4F839
:1002B0001CA006460027C4F818A02A2E09D03046F4
:1002C00004F079FF38B304EB8708303EC8F81860B3
:1002D00019E059F8041B204604EB87029161E1689C
:1002E0008847012F064618D1E069002820DA25F05A
:1002F00020051DE0D8F8180000EB800006EB400058
:100300003038C8F818002046E1688847064604F0EF
:1003100052FF0028EED1012F0AD02E2E08D1204600
:10032000E16888477F1C0646022F45F02005C4DBA4
:10033000A069002803DA404245F00105A061E80702
:1003400001D025F01005B6B1A6F14100192802D858
:10035000203645F400654A463146204625604D4624
:10036000FFF7FEFE58B1012806D0ED1D25F007006D
:1003700000F1080989E704E005F1040985E7304642
:100380008AE7206ABDE8F0872DE9F05F93460F46C3
:1003900080460446002600F02FF9D0F800908246EF
:1003A00014F8015B2DB100F01FF90068405DC00733
:1003B000F6D12B2D02D02D2D1AD0641E0021CAF8A3
:1003C00000105A463946204600F065FB014627B129
:1003D0003868A04201D1C7F80080DAF8000002288E
:1003E00009D0CAF80090700505D54842BDE8F09FD5
:1003F00046F48066E2E70846F8E710B5431C02E0E1
:1004000010F8011B71B18107FAD14FF0013202C817
:100410008C1A8C4314EAC211F9D0C01A0A0603D010
:10042000C01E10BDC01A10BD0A0401D0801E10BD30
:100430000902FCD0401E10BD40EA010370B59B07C5
:100440002ED14FF00136042A2AD308C810C99D1BAB
:100450009D43121F15EAC61517D0D8B2E1B2401A53
:1004600050EA056110D198B2A1B2401A50EA054194
:100470000AD123F07F4024F07F41401A50EA052141
:1004800002D1180EA0EB146070BDA342DBD018BAE5
:1004900021BA884201D9012070BD4FF0FF3070BDF4
:1004A0000AB9002070BD10F8013B11F8014B63B18F
:1004B000A3420AD1521E08D010F8013B11F8014B9B
:1004C0001BB1A34201D1521EEDD1181B70BD4FF0DC
:1004D00000020429C0F0128010F0030C00F01B8011
:1004E000CCF1040CBCF1020F18BF00F8012BA8BF1F
:1004F00020F8022BA1EB0C0100F00DB85FEAC17CE3
:1005000024BF00F8012B00F8012B48BF00F8012B95
:1005100070474FF0000200B51346944696462039C6
:1005200022BFA0E80C50A0E80C50B1F12001BFF4AC
:10053000F7AF090728BFA0E80C5048BF0CC05DF812
:1005400004EB890028BF40F8042B08BF704748BF60
:1005500020F8022B11F0804F18BF00F8012B7047D4
:100560004FF0013C50F8042B51F8043B9A4221D142
:10057000A2EB0C03934313EACC1317D150F8042BCE
:1005800051F8043B9A4215D1A2EB0C03934313EAB2
:10059000CC130BD150F8042B51F8043B9A4209D1EB
:1005A000A2EB0C03934313EACC13DBD04FF0000013
:1005B000704700BFD01A01BAB1FA81F101F01801F9
:1005C00022FA01F0CB40C1F12001DBB2C0B2C01A67
:1005D0002CFA01F3D11A914311EAC311E6D1704705
:1005E000704770477047000010B500F0B5FA001D65
:1005F00010BD00BF094D00000048704708020020F0
:1006000070472DE9FF4F0C461E464FF0FF378BB069
:10061000D2E90001DDF860800A908A46C1F30A55EC
:1006200005B93D46002108464FF00000BAF1000F21
:1006300000F4400005DA00EB80004FF4400101EACD
:1006400050004FEA9059B9F1010F00DDB9460A9800
:1006500050EA4A000ED044F61050A5F2FF3545434B
:100660002F14B8F1000F1ED07542291E1EDDC9F1EE
:1006700000021CE0B8F1010F4FF0000001D0302162
:1006800003E0F24305E02154401CB042FBDB30465E
:100690000022002121540B99C1F80880C1E90020F3
:1006A0000FB0BDE8F08FBD1B6D1CDEE74A4600DAD7
:1006B000694206A800F03AFB06AB93E8070003ABDB
:1006C00083E8070050460A9901F0C4F88DE8070056
:1006D000A0F500501F3800900398002D0ADD42F26B
:1006E0001F014A460844002303A90390684601F00D
:1006F0006FFB09E0A0F500504A461F38002303A90C
:100700000390684601F08EFB8DE807000004000CA2
:1007100003D04FF0FF30410800E01046B8F1000F61
:1007200003D00022009215461EE0751E05D400F08D
:1007300017FA303262556D1EF9D5B34601220843CF
:1007400002D000227F1C04E02078302801D1002252
:100750007F1E002A099784D01DE0112D07DA00F0D2
:10076000FFF9303262556D1C50EA0102F5D10843A1
:1007700002D00098C8B10EE00021681E05E0235C9D
:10078000625C63542254401E491C8142F7DBAB4635
:10079000A81B401E0990002004F80B000B98099A32
:1007A000C0F80880C0E9002B7AE711264FF0000856
:1007B00057E72DE9F04F88460446D21D22F0070185
:1007C00091B0D1E90001CDE90A0104F043FC0246F1
:1007D0000B98C00F01D02D2007E02068810701D5BC
:1007E0002B2002E0202101EAC000032A099001D059
:1007F000072A05DB03464146204600F0F7F90BE1E6
:100800002078800601D5E06900E00620B8F1650F88
:10081000814606D0B8F1660F18D0B8F1670F70D1D5
:1008200031E00020B9F1110F009001DB112301E04C
:1008300009F101030AAA01A90CA8FFF7E2FEDDE90C
:100840000C70002609F10105834647E001204B4664
:1008500000904FF000470AAA01A90CA8FFF7D1FEAB
:10086000DDE90DB00C995D46002610B909F10100D3
:100870000D18B9EB050003D4C0F1FF3609F10105ED
:10088000A5EB09002BE0B9F1010F01DA4FF00109E6
:100890000020B9F1110F0090484601DD112300E05E
:1008A00003460AAA01A90CA8FFF7ABFEDDE90C700C
:1008B0004D4600268346207800070AD4AB4500DA6F
:1008C0005D4601A8012D04DD411911F8011C3029F4
:1008D00007D04F4502DA17F1040F04DA01208246EF
:1008E0000FE06D1EEEE7002F02DCED1B3E4403E03F
:1008F000781CA84200DD7D1CB81B00F1010A4FF0F6
:1009000000472078000703D4AA4501DB4FF0FF3AE7
:100910000021B7F1004F0DF143088DF8431024D0AA
:1009200002202B23002F01DA7F422D230A21021EF1
:10093000A0F1010000DC5FB197FBF1FC97FBF1F245
:1009400001FB1C7C17460CF1300C08F801CDEEE7DA
:10095000A8F1010003702188090501D5452100E0B7
:100960006521A0F1010800F8011C09980FA9A1EB6D
:100970000807FF1D00B10120411901EBEA70A169D0
:100980003844081A401EA0612078C00602D42046D0
:10099000AFF30080099828B1D4E901219047206A7B
:1009A000401C20622078C00622D52046AFF300808C
:1009B0001EE0002E04DBB34502DD01A8805D00E0EF
:1009C0003020D4E901219047206A401C2062761C27
:1009D000AAF101005FEA000A0AD100F0BDF8C06880
:1009E0000168405CD4E901219047206A401C2062E4
:1009F000281EA5F10105DCDC07E0D4E9012118F887
:100A0000010B9047206A401C2062381EA7F10107A5
:100A1000F3DC2046AFF30080032011B041E6000074
:100A200001694A1C02610878704700B58FB0CDE9B2
:100A300001310021059105497944CDE903101146A2
:100A40006846FFF71AFC0FB000BD0000E5FFFFFF8E
:100A50000A6802F8010B0A607047D1E900239A4244
:100A600002D2531C0B601070704710B5436913B16C
:100A7000AFF3008001E0FFF7D7FB012010BD127833
:100A800000F124010A7000224A700122EDE711688A
:100A90004FF0FF32E9E72DE9F05F824615468B46BD
:100AA00000270AF10104B9460078302801D09DB131
:100AB00013E014F8010B0127782803D0582801D03F
:100AC00045B10AE00DB1102D07D1002714F8010B34
:100AD000102502E0082500E00A250026B0460EE0B9
:100AE00005FB080005FB06F101271FFA80F801EB62
:100AF0001046B6F5803F00D3B94614F8010B2946DD
:100B000000F0B4F80028EBDABBF1000F05D00FB10C
:100B1000641E00E05446CBF80040B9F1000F06D047
:100B2000FFF76AFD02210160C81EBDE8F09F48EA98
:100B30000640FAE77CB5054600236846CDE9003358
:100B400000F0C0F86946284604F0C4FA7CBD0000F5
:100B50000048704708020020004870472802002023
:100B600030B5B0F10A024FEA900E71F100034EEA7F
:100B7000817EB0EB0E0061EB91014FEA101E4EEA50
:100B8000017E10EB0E0041EB11114FEA102E4EEAE0
:100B9000016E10EB0E0041EB11214FEA104E4EEAB0
:100BA000014E10EB0E0041EB1141401841F10001E4
:100BB0004FEAD00040EA41704FEAD10110EB8005C6
:100BC0004FEA810444EA907444EB01046D1944EB4C
:100BD0000404521BA3414FF0000348BF0A3200D562
:100BE00030BD401C41F1000130BD00002DE9F04155
:100BF0001F46044603260168072A01F4006004DB4F
:100C000008B116A505E016A503E008B115A500E09A
:100C100015A521F010002060A069C01EA0610FB1D1
:100C2000401EA0612046AFF300804FB1D4E90121FE
:100C300038469047206A401C2062C01C206206E0B3
:100C4000206AFAE7D4E9012115F8010B9047761ED6
:100C5000F8D22046AFF30080BDE8F0814E414E004F
:100C60006E616E00494E4600696E66003A2800D2F9
:100C7000303820F02002412A01D3A2F13700884207
:100C800001D34FF0FF3070470FB4002300B589B097
:100C90000CA900910B99CB60214B7B440693214B0F
:100CA0007B44079304236FF00042CDE901321E4AD2
:100CB0007A446B4608920246002005F0BDF909B05F
:100CC0005DF814FB70B506464FF0FF3015460C4634
:100CD000324686B00091CDE90101694600200490BA
:100CE00004A8FFF7D1FF02460498211825B108B1E6
:100CF000084600E020462860049800280DD0002A0D
:100D000002DD0098884208D03246081B69460094EC
:100D1000CDE9010404A8FFF7B7FF06B070BD0000DD
:100D2000E5010000FD010000BD0100002DE9F047D4
:100D3000814616468AB0354878440DC88DE80D00C6
:100D400032487844801C03AC0DC884E80D0041F69D
:100D50009B300844372190FBF1F290FBF1F5A5F1AF
:100D6000800501FB12041B3C02D56442012000E017
:100D70000020DFF898A080460027FA44AAF1BE0AB6
:100D80000EE0E0070AD03246684607EB4701012330
:100D90000AEB810101F046F88DE8070064107F1C22
:100DA000002CEED1194F7F44AE3F19E0E80715D073
:100DB00007EB04100DF1180A90E80E008AE80E0007
:100DC000C068F04201D1981908903246012306A963
:100DD00003A801F027F803AB83E807006D10641C3B
:100DE000002DE3D14FF0010332466946B8F1000F00
:100DF00003A802D000F0ECFF01E001F013F8C9E90C
:100E00000001C9F808200AB0BDE8F087E0530000EF
:100E10007546FFF79DFEAE4605006946534620F035
:100E20000700854618B020B5FFF7D2F9BDE820408D
:100E30004FF000064FF000074FF000084FF0000B96
:100E400021F00701AC46ACE8C009ACE8C009ACE849
:100E5000C009ACE8C0098D46704710B5FFF7CCFB60
:100E6000006810BD10B50446FFF7C6FB046010BD56
:100E700010B50446FFF7B8FB0068005D00F0010004
:100E800010BD426842B1016811F8013B23B1521E06
:100E9000C0E90012184670470121C160881E7047E2
:100EA00042685AB1C368016843B983688B4205D070
:100EB000491E521CC0E90012002070474FF0FF305D
:100EC000704710B50446AFF300802046BDE81040DF
:100ED000FFF769B92DE9FF4F06468BB00878FF2868
:100EE00006D0491C2D2805D000244FF0000908E049
:100EF00000200CE00124F8E709EB8903491C00EB12
:100F000043090878FF28F7D114B1C9F100008146E0
:100F1000107800252C46AA4629462D2801D02B28DA
:100F200004D1521C2D2813D0002082468B46107805
:100F3000FF280FD04FF0000C0A21521CA5FB0178AE
:100F400004FB018105FB0C11C5194BEB0104EEE715
:100F50000120EAE7002108464FF00000BAF1000F37
:100F600002D000EB80004008C0F38157012F01DD63
:100F70004FF0FF370E9955EA040009EB01080BD03A
:100F80004FF0020918F5FA7F16DA4FEACA70002FFF
:100F9000706008DD012007E04FEACA70C6E900B0C2
:100FA0000FB0BDE8F08F00203060FFF725FBC0F8E0
:100FB00000901821084616E0B8F5FA7F18DD002FDA
:100FC00002DAF748784401E0F6487844D0E90010A6
:100FD000C6E9001040EACA707060FFF70DFBC0F868
:100FE0000090142108460FB0BDE8F04F04F0BFBFD9
:100FF000002108464FF00000B8F10001099002DA24
:10100000C7F1000200E03A4601DAC8F1000106A883
:10101000FFF78CFE06AB93E8070003AB83E80700FD
:1010200044F23E005BEA04010090584604D144F2C9
:101030001E012C465D460091210C0904014306D196
:101040000099240444EA15442D041039009104F059
:101050007F41014306D10099240244EA15642D0220
:101060000839009104F07041014306D10099240130
:1010700044EA15742D01091F009104F04041014319
:1010800006D10099A40044EA9574AD00891E009130
:1010900004F00041084304D100986D196441401EDA
:1010A00000904FF001033A466846B8F1000FCDE9D1
:1010B000014503A902DD00F0CAFE01E000F09DFE3B
:1010C000BAF1000F04460D4601D084F0004400211F
:1010D00008464FF00000099940F2FF77484010F0B1
:1010E0000C0F07D124F00040284303D0C4F30A506A
:1010F000B84212D1FFF780FAC0F80090C4F30A504A
:10110000B8420AD1A8487844D0E90010C6E90010D6
:1011100004F000410843706042E7C6E900543FE72D
:101120002DE9FF4F1F464FF0000A4FF0FF384546AC
:1011300091B0D7E90146CDF83CA0FFF70DFDC0689E
:101140000168405C1090B96912986D1C8847396A33
:10115000814688470028F6D1B9F1FF3F0AD0002E1A
:1011600024F4D06411DDB9F12B0F08D0B9F12D0FA3
:101170000BD102E0404615B013E744F48064B9692E
:1011800012986D1C8847761E8146600504A901D51A
:101190002D2000E02B20002E01F1010B0DF1300875
:1011A0008DF810003FDDB9F1690F08D0B9F1490F92
:1011B00005D0B9F16E0F02D0B9F14E0F1CD13B46EC
:1011C00001A8009580E85002DDE912126FF00200DC
:1011D00004F036FFC11CCED10EE0B96912986D1C27
:1011E000884781461398761E44F4007405600F9872
:1011F000401C002E0F9016DDB9F1300FEDD0B9F183
:10120000780F02D0B9F1580F0DD10F9801280AD1EB
:101210003B46CDE90054DDE91212001F029604F0AE
:101220000DFFC11CA7D1109989453ED144F080041F
:1012300006E01399681CAAF1010A44F400740860DE
:10124000B9696D1C1298761E884730288146F0D007
:101250002BE01099894505D1200603D4761E44F071
:10126000800418E0484603F0A6FF08B3761E0DF18F
:1012700023018B4544F4007408D2A9F130000BF827
:10128000010B200607D5AAF1010003E0200602D4D5
:101290000AF101008246A00502D51399681C086076
:1012A000B96912986D1C88478146002ED1DC53E045
:1012B000002E51DDB9F1650F02D0B9F1450F4BD1C8
:1012C000A00549D5B9696D1C1298761E24F44074A6
:1012D0008847002E81460CDD2B2804D0B9F12D0F54
:1012E00007D144F48074B96912986D1C8847761E42
:1012F0008146E00501D52D2100E02B2108F8011BD6
:10130000CDF8008021E0761E0DF13901884544F4C6
:1013100000740CD2A9F1300010F0FF0088F8000032
:1013200002D10099884509D908F1010806E0E005D5
:1013300001D51E4801E042F20F708246B969129849
:101340006D1C8847814613980560002E04DD4846D1
:1013500003F031FF0028D6D1F96912988847FF20A1
:1013600053468BF8000088F8000000200A900B908C
:1013700004AA0CA90AA8FFF7ADFDA00502D46FF0DE
:101380000100F8E614F0240F12D0E0071CD13868F1
:10139000DDE90A12031D3B600068C0E9001213E09A
:1013A000D8510000CA5100008E500000F1D8FFFF54
:1013B0000AA9684603F08EFEE00705D13868009A56
:1013C000011D3960006802602846D4E601491820F2
:1013D000ABBEFEE7260002002DE9FF4F1F464FF08F
:1013E0003C0987B04FF00042DDE9141001F101081B
:1013F000DDF858A002EA4050039000200590834693
:10140000054604460490B969461E08988847AAF123
:10141000010A0290BAF1000F3BDD02982E2815D088
:101420001021FFF723FC00282EDB4FF0010B05995C
:10143000014317D0B9F1000F0BDB4A46C11700F08A
:10144000F6F905430C43A9F1040905E001200490D5
:101450000BE008B145F0010501200590049820B982
:10146000361D02E0049800B1361FB969089808F1EA
:1014700001088847BBF1000FAAF1010A0290C9D008
:101480000999C1F80080C5E70298702808D0502853
:1014900006D0F96908988847BBF1000F14D04FE0D7
:1014A000002002900120BBF1000F049009D0B9691F
:1014B000089808F101088847AAF10109B9F1000F5D
:1014C00007DCF969089888476FF001000BB0BDE8A8
:1014D000F08F2B2804D02D280CD14FF0FF30049032
:1014E000B969089808F101088847A9F10109B9F11B
:1014F000000FE6DD411CE4D00A21FFF7B7FB00280E
:10150000DFDB029908F1010801EB810100EB4100EA
:101510000290B969089888470A21FFF7A7FB099A42
:10152000A9F10109B9F1000FC2F8008001DD00281E
:10153000E7DAF969089888470499029800FB016680
:1015400055EA040004D004F04041090002D006E04E
:10155000039898E0A40044EA9574AD00B61E04F028
:101560000041080002D16D196441761E159810F0F3
:10157000240F03D04FF00B095C4803E04FF028091B
:101580006FF07D008246564507DAAAEB06018944D2
:10159000B9F1410F01DD4FF0410901200021A9F10E
:1015A000010200F044F9024628400B46214008435E
:1015B00001D0012100E00021501E029143F1FF31D2
:1015C00028402140084301D0012000E0002002997A
:1015D000834651EA0B014FD0002108464FF000002E
:1015E000039900F4400039B100EB80004FF4400152
:1015F00000EBD07001EA60008015012802DD4FF099
:10160000FF3000E013D0401C36D0029860B3BBF12D
:10161000000F0CD14A460120002100F008F92840B3
:101620002140084301D0012000E00020E0B101206A
:101630004A46002100F0FBF8034640190A46614182
:101640002D1A8C4111D3B9F1400F09DD159810F016
:10165000240F02D0AAF1340603E0AAF1170600E035
:10166000761C00254FF0004406E05B1E42F1FF327D
:1016700020EA030521EA0204CAF10100B04206DAB9
:101680001B49039808430190002000900EE0039A44
:10169000C4F3D321E80A0A43164940EA44500A43F6
:1016A0003146CDE90002684603F07AFD159810F046
:1016B000240F0BD01598C00715D13868DDE900124A
:1016C000031D3B600068C0E900120CE002A86946F7
:1016D00003F000FD1598C00705D13868029A011D76
:1016E0003960006802604046F0E6000002FCFFFF3F
:1016F0000000F07F0000F03F2DE9FF4F92461D46AD
:1017000085B04FF00041DDE9124BDDE914727F1E18
:1017100001EA4B50414940F0FF4940EA01080021ED
:1017200022F020004928049102D04E2828D04CE015
:101730003BA0012607C88DE80700A9690698641C2C
:1017400088477F1E014606D41DF8060018B121F017
:10175000200181420BD0E96906988847032E34D0D6
:10176000082E32D06FF0010009B0BDE8F08F761C72
:10177000032E01D0082EE0D1601CCAF80000DCE77F
:10178000A9690698641C88477F1E2AD420F020008F
:10179000412826D1A9690698641C88477F1E20D459
:1017A00020F020004E281CD1A9690698641C8847A7
:1017B0007F1E48F4002849F48009CAF8004001D48B
:1017C000282806D0E969069888475FEACB7012D0CE
:1017D00022E0A9690698641C88477F1E01D400286E
:1017E00003DAE96906988847BCE72928F1D1641C27
:1017F000CAF80040E9E71BF0240F07D028680499D5
:10180000031D2B600068C0E9001805E02868021D70
:101810002A600068C0F800902046A5E70000F07F2D
:10182000494E46494E495459000000007047B2F1F4
:1018300020030AD5C2F1200301FA02F120FA03F3D2
:1018400000FA02F041EA0301704700FA03F14FF099
:10185000000070475FEA400C08BF91F0000F4FEAAC
:101860008C234FEAC12243EA51514FEA1C5018BF62
:1018700000F5F0404FEA300018BF41F000415FEA48
:101880006C5C00F02980BCF1FF3F08BF40F0804055
:101890007047130C06BF12044FF0100C4FF0000CF1
:1018A000130E04BF12020CF1080C130F04BF120137
:1018B0000CF1040C930F04BF92000CF1020CD30F37
:1018C00004BF52000CF1010C11464FF00002A0F1D0
:1018D0001F00A0EB0C00704711F0004F08BF7047CD
:1018E00031F000413FF4D5AF0B0C06BF09044FF0B7
:1018F000100C4FF0000C0B0E04BF09020CF1080C89
:101900000B0F04BF09010CF1040C8B0F04BF8900FD
:101910000CF1020CCB0F04BF49000CF1010CCCF10F
:101920002003A0EB0C0022FA03F302FA0CF241EAC6
:10193000030100F10100704720F07F4C80EA0300B2
:1019400023F07F47ACEB070303F57C5300F0004026
:1019500003F1FF032DE980494FEA154B09B44FEA23
:10196000144325EA0B4E24EA03480FF2042606EB43
:10197000132749083E785FEA320203FB0667C7F582
:10198000000707FB06F64FEA54374FEAD64606F142
:10199000020607FB066CCCF1005C4FEA1C472CEA00
:1019A000074C07FB06F40CFB06F504EB15464FEA63
:1019B000961634BF00204FF000404FEAD13706FBA7
:1019C00007FC4FEA1C4C0CFB0BF7D21B03FB0CF77C
:1019D00061EB07010CFB0EF7B0EB074072EB17420F
:1019E0000CFB08F734BFA2EB0742B2EB074261EBF6
:1019F00017414FEA0C444FEA910706FB07FC4FEAF8
:101A00001C4C0CFB0BF7B0EBC74072EB573203FBDF
:101A10000CF734BFA2EBC742B2EBC74261EB5731C0
:101A20000CFB0EF7B0EBC70072EB57720CFB08F71C
:101A300034BFA2EBC702B2EBC70261EB5771039F41
:101A40004FEA816141EA921104EBCC044FEAD137AD
:101A50004FEA826206FB07FC42EA90124FEA80607E
:101A60004FEA1C4C0CFB0BF7D21B03FB0CF761EB92
:101A700007010CFB0EF7B0EB074072EB17420CFBB3
:101A800008F734BFA2EB0742B2EB074261EB174104
:101A90004FEA8C554FEA910704EB9C2406FB07FCA8
:101AA0004FEA1C4C0CFB0BF7B0EBC74072EB573204
:101AB00003FB0CF734BFA2EBC742B2EBC74261EBAA
:101AC00057310CFB0EF7B0EBC70072EB57720CFBF3
:101AD00008F734BFA2EBC702B2EBC70261EB577144
:101AE00015EB4C254FEA816141EA92114FEA82627F
:101AF0004FEAD13742EA901206FB07FC44F100049A
:101B00004FEA80604FEA1C4C0CFB0BF7D21B03FB27
:101B10000CF761EB07010CFB0EF7B0EB074072EB23
:101B200017420CFB08F734BFA2EB0742B2EB0742A7
:101B300061EB174115EB1C154FEA813141EA9241E7
:101B40004FEA823242EA90424FEA80304FEA0C7606
:101B500044F1000448EA03434EEA0B484FF0000EFC
:101B6000B2EB080C71EB030724BF624639464EEB1B
:101B70000E0E4FF0000B0018524149414BEB0B0B7E
:101B8000B2EB080C71EB03077BF1000B24BF62463C
:101B900039464EEB0E0E4FF0000B001852414941F2
:101BA0004BEB0B0BB2EB080C71EB03077BF1000B5B
:101BB00024BF624639464EEB0E0E51EA020718BFAB
:101BC00046F0010616EB0E7655F1000254F10001C5
:101BD00003D5BDE88901BDE80088BDE88901BDE8FD
:101BE0000048B619524141EB0101A3F101037047CE
:101BF00080807F7E7D7C7B7A79787776767574734A
:101C0000727171706F6E6E6D6C6C6B6A6A69686808
:101C1000676666656464636362616160605F5F5E9E
:101C20005E5D5D5C5C5B5B5A5A5959585857575614
:101C30005655555554545353525252515150505079
:101C40004F4F4F4E4E4D4D4D4C4C4C4B4B4B4A4ACB
:101C50004A4949494848484747474746464645450F
:101C60004544444444434343434242424241414148
:101C700046EA0646A3F570534FEA164646EA425630
:101C80004FEAD22242EA415210B54FEAD121A3F1E4
:101C9000010300F02FF820F0004000F1020C00F0EA
:101CA000004701EB00501146BCF5006F40EA070009
:101CB00000D210BDBAF1000F0AD01CB503B44FF02A
:101CC00004004FF004014FF000000FBCBDE81040CD
:101CD0004FF00001BBF1010FB9BF04484FF0FF31D5
:101CE0000348002140EA070010BD00BFFFFFEF7F5F
:101CF0000000F07F002B9C4630D477002BD01CB521
:101D00004FEA370703B44FF010004FF01001BAF15B
:101D1000000F06D0BCF1000FDCBF40F0080040F01F
:101D200008014FF000000FBCBDE810400BF1010BA3
:101D3000BBF1010F08BF5FEA170722BF12F10102D2
:101D400011F101014FF0004143F1000300F00040A8
:101D500043EA00007047F9D35708D0E746EA064641
:101D600013F1400F4FEA16461FDD13F1200FDFBFBE
:101D700016430A46002120335B42BED0C3F1200740
:101D800046EA064602FA07F74FEA164646EA07060B
:101D9000C3F1200722FA03F201FA07F721FA03F14F
:101DA0004FF0000342EA0702A7E746EA020646EAC6
:101DB00006464FEA164646EA0106BCBF46EA064614
:101DC000360C4FF000034FF000024FF0000194E793
:101DD0002DE9804C9A46934670B491E8380007C8C4
:101DE00031EA400C48BF34EA430C03D5FFF7A4FDA9
:101DF000FFF780FFF0BCBDE8008C2DE9804C9A46CF
:101E0000934670B491E8380007C831EA400C48BFE7
:101E100034EA430C03D5FFF78FFDFFF729FFF0BC31
:101E2000BDE8008C2DE9804C9A46934670B491E849
:101E3000380007C810F0804F08BF13F0804F03D15F
:101E400000F01AF8FFF756FFF0BCBDE8008C2DE952
:101E5000804C9A46934670B491E8380007C810F059
:101E6000804F08BF13F0804F03D100F005F8FFF753
:101E7000FFFEF0BCBDE8008C20F07F4780EA030045
:101E800023F07F4C07EB0C03A3F57C5300F00040DC
:101E9000A3F1FE0392F0000F00F0B38095F0000F65
:101EA00000F077802DE901494FEA11404FEA1446CE
:101EB00021EA004800FB06FC24EA064708FB06F678
:101EC00007FB08F800FB07F718EB06484CEB164C2D
:101ED0004FEA124B18EB07484FEA15464CEB1740F8
:101EE00022EA0B4E0BFB06FC25EA06470EFB06F624
:101EF00007FB0EFE0BFB07F71EEB064E4CEB164CDA
:101F00004FF000061EEB074E4CEB174B18EB0B087F
:101F100040F1000018EB0E0B58EB000840F10000F8
:101F20008F1A4FF000013CBFC943661B14BFB5EBCD
:101F3000040C00213CBFC943F61B4FEA17444EEA8C
:101F40008E0E27EA04454FEA1C4704FB07622CEA81
:101F5000074C05FB07F70CFB05F604FB0CFC16EB26
:101F6000074642EB174216EB0C4642EB1C421BEBBA
:101F7000060658EB0202414146EA9E0601D5BDE83D
:101F80000189B619524141EB0101A3F10103BDE8FA
:101F900001894FEA14454FEA114724EA054621EA30
:101FA000074C05FB07F406FB07F70CFB06F105FBE6
:101FB0000CFC11EB074144EB17444FEA124711EBBD
:101FC0000C4144EB1C4422EA074C05FB07F206FBDC
:101FD00007F70CFB06F605FB0CFC16EB074642EB7D
:101FE000174216EB0C4642EB1C456A1854F10001EF
:101FF00048BF7047B619524141EB0101A3F10103FB
:10200000704795F0000F37D04FEA11424FEA14475E
:1020100021EA024624EA074C02FB07F106FB07F718
:102020000CFB06F402FB0CFC14EB074441EB1741DC
:102030004FEA154714EB0C4441EB1C4125EA074CD1
:1020400002FB07F506FB07F70CFB06F602FB0CFC90
:1020500016EB074645EB174516EB0C4645EB1C42C5
:10206000121951F1000148BF7047B619524141EBB6
:102070000101A3F1010370474FEA14454FEA1147EC
:1020800024EA054621EA074C05FB07F106FB07F7A2
:102090000CFB06F24FF0000605FB0CFC12EB0742AE
:1020A00041EB174112EB0C4251EB1C4148BF70470A
:1020B000921841EB0101A3F10103704700BFFEE755
:1020C000704772B600BFFEE70146002291F821007A
:1020D000022808D00420886300BF002081F8200077
:1020E00000BF012070470868006820F00E000B68F0
:1020F00018600868006820F001000B68186091F80B
:10210000403001209840CB6B5860012081F82100BD
:1021100000BF002081F8200000BF1046E2E7000069
:1021200070B50446002594F82100022803D004204D
:10213000A063012548E02068006820F00E002168B7
:1021400008602068006820F00100216808601F49CD
:102150002068884201D1012026E01C491431206802
:10216000884201D110201FE0184928312068884298
:1021700001D1801518E015493C312068884201D111
:10218000801411E0114950312068884202D14FF487
:10219000803009E00D4964312068884202D14FF453
:1021A000801001E04FF08070084908394860012034
:1021B00084F8210000BF002084F8200000BF606B7D
:1021C00010B12046616B8847284670BD0800024068
:1021D0002DE9F8470346002294466EE14FF00108CE
:1021E00008FA02F4D1F8008008EA0400A0427DD188
:1021F000DFF8DCA2D1F80480A8EB0A09D0453AD078
:1022000014DCB8F1030F50D009DCB8F1000F31D065
:10221000B8F1010F1CD0B8F1020F49D120E0B8F19C
:10222000110F18D0B8F1120F42D11EE0B9F5881F76
:1022300025D006DCB9F5803F20D0B9F5801F37D115
:102240001AE0B9F5001F18D0B9F5041F30D117E016
:10225000D1F80CC02DE0D1F80C8008F1040C28E076
:10226000D1F80C8008F1080C23E0D1F80C8008F1BB
:102270000C0C1EE000BF00BF00BF00BF00BF00BFCE
:10228000D1F80880B8F1000F02D14FF0040C0BE038
:10229000D1F80880B8F1010F03D14FF0080C1C6190
:1022A00002E04FF0080C5C6103E04FF0000C00E02E
:1022B00000BF00BFFF2801D8984601E003F10408E1
:1022C0004646FF2802D84FEA820803E0A2F1080838
:1022D0004FEA88084746D6F800804FF00F0909FA00
:1022E00007F928EA09080CFA07F900E088E048EA4B
:1022F0000908C6F80080D1F8048008F08058B8F1C9
:10230000805F7DD100BFDFF8CC81D8F8188048F01D
:102310000108DFF8C091C9F81880C846D8F81880BD
:1023200008F00108CDF8008000BF00BF4FEAB938BF
:102330004FEA920958F829504FEA82784FEA187903
:102340004FF00F0808FA09F825EA0805DFF8888138
:10235000434502D14FF0000816E0DFF88081434585
:1023600002D14FF001080FE0DFF87481434502D13C
:102370004FF0020808E0DFF86C81434502D14FF0CE
:10238000030801E04FF004084FEA82794FEA197917
:1023900008FA09F848EA0505DFF84C814FEA920986
:1023A00048F82950D1F8048008F48018B8F5801F47
:1023B0000AD1DFF83881D8F8008048EA0008DFF851
:1023C0002C91C9F8008009E0DFF82081D8F800805E
:1023D00028EA0008DFF81491C9F80080D1F80480D9
:1023E00008F40018B8F5001F10D1DFF8008108F1DB
:1023F0000408D8F8008048EA0008DFF8F09000E010
:102400005AE009F10409C9F800800DE0DFF8DC802A
:1024100008F10408D8F8008028EA0008DFF8CC901A
:1024200009F10409C9F80080D1F8048008F40038E3
:10243000B8F5003F0ED1DFF8B480A8F10408D8F851
:10244000008048EA0008DFF8A490A9F10409C9F85F
:1024500000800DE0DFF89480A8F10408D8F800802F
:1024600028EA0008DFF88490A9F10409C9F800807F
:10247000D1F8048008F48038B8F5803F0ED1DFF839
:102480006C80A8F10808D8F8008048EA0008DFF856
:102490005C90A9F10809C9F800800DE0DFF84C80D4
:1024A000A8F10808D8F8008028EA0008DFF83C9076
:1024B000A9F10809C9F80080521CD1F8008028FA57
:1024C00002F8B8F1000F7FF489AEBDE8F88700008C
:1024D000000011100010024000080140000C0140F3
:1024E00000100140001401400800014008040140B0
:1024F00010B5C26821EA020302EA010443EA044378
:10250000036110BD0AB1016101E00B040361704772
:102510000148006870470000500000200348006830
:1025200003490978084401490860704750000020B9
:102530005800002010B50848006840F01000064917
:102540000860032000F0A8F80F2000F007F800F062
:102550002BF8002010BD00000020024070B504469A
:102560000E4800784FF47A71B1FBF0F00C4909681D
:10257000B1FBF0F5284600F0F9FB08B1012070BD71
:10258000102C07D200222146501E00F047F80548C3
:10259000046001E00120F2E70020F0E7580000208D
:1025A0005C0000205400002008B500BF114880697D
:1025B00040F001000F4988610846806900F0010081
:1025C000009000BF00BF00BF0846C06940F08050C7
:1025D000C8610846C06900F08050009000BF00BF8D
:1025E00000BF0549486820F0E06040F00070486096
:1025F00000BF08BD0010024000000140014608462F
:10260000002809DB00F01F0301229A4043099B00C8
:1026100003F1E023C3F8002100BF70472DE9F05F0C
:1026200080460D461646002702F028FD074639462B
:102630002A46334601F00700C0F1070ABAF1040F39
:1026400002D94FF0040A01E0C0F1070AD14600F1B7
:10265000040ABAF1070F02D24FF0000A01E0A0F11C
:10266000030AD4464FF0010A0AFA09FAAAF1010A4C
:102670000AEA020A0AFA0CFA4FF0010B0BFA0CFBF9
:10268000ABF1010B0BEA030B4AEA0B04214640466F
:1026900002F0FCFCBDE8F09F00BF00F00702064B13
:1026A00019684FF6FF031940044B0B4343EA02211C
:1026B000014B196000BF70470CED00E00000FA0507
:1026C00070B504460D460CB9012070BD5A4800682B
:1026D00000F00700A8420ED25748006820F007001B
:1026E0002843554908600846006800F00700A842E2
:1026F00001D00120E9E7207800F0020002281DD176
:10270000207800F00400042805D14C48406840F4CB
:10271000E0604A494860207800F00800082805D1A8
:102720004648406840F46050444948604348406827
:1027300020F0F000A168084340494860207800F08C
:10274000010078B36068012806D13C48006800F4B5
:10275000003090B90120B8E76068022806D13748F8
:10276000006800F0007040B90120AEE7334800680F
:1027700000F0020008B90120A7E73048406820F0C7
:102780000300616808432D494860FFF7C1FE064613
:1027900009E0FFF7BDFE801B41F28831884202D973
:1027A000032092E707E02548406800F00C006168CC
:1027B000B0EB810FEDD12048006800F00700A8427F
:1027C0000ED91D48006820F0070028431A49086008
:1027D0000846006800F00700A84201D0012074E715
:1027E000207800F00400042807D11448406820F441
:1027F000E060E168084311494860207800F0080073
:10280000082808D10D48406820F46050216940EA4A
:10281000C1000A49486000F03FF808494968C1F31F
:102820000311074A515CC840064908600648006821
:10283000FFF794FE002048E700200240001002400D
:10284000866000085C0000205400002001480068F9
:10285000704700005C00002000B5FFF7F7FF044957
:102860004968C1F30221034A515CC84000BD000021
:10287000001002409660000800B5FFF7E7FF04492A
:102880004968C1F3C221034A515CC84000BD000041
:10289000001002409660000870B50021002200245C
:1028A00000230020134D696801F00C05F5B1042DDB
:1028B00002D0082D19D101E00F4819E00F4DC1F3E6
:1028C0008346AB5D01F4803555B10A4D6D68C5F3A3
:1028D00040450B4E725D084D5D43B5FBF2F402E0DE
:1028E000084D03FB05F4204602E000BF024800BF8C
:1028F00000BF70BD0010024000127A007460000832
:102900008460000800093D00F8B504460CB90120B8
:10291000F8BD207800F00100002878D0F848406821
:1029200000F00C0004280CD0F548406800F00C00C2
:10293000082811D1F248406800F48030B0F5803F9B
:102940000AD1EF48006800F4003000285FD06068CA
:1029500000285CD10120DBE700BF6068B0F5803F54
:1029600006D1E748006840F48030E549086028E077
:10297000606858B9E248006820F48030E049086097
:102980000846006820F4802008601AE06068B0F50E
:10299000A02F0BD1DA48006840F48020D8490860A5
:1029A0000846006840F4803008600AE0D4480068B7
:1029B00020F48030D24908600846006820F4802066
:1029C000086000BF606888B1FFF7A2FD054606E019
:1029D000FFF79EFD401B642801D9032098E7C848F3
:1029E000006800F400300028F2D010E0FFF790FDFE
:1029F000054606E0FFF78CFD401B642801D9032043
:102A000086E7BF48006800F400300028F2D1207843
:102A100000F00200022857D1B948406800F00C00CD
:102A200050B1B748406800F00C00082818D1B448ED
:102A3000406800F4803098B9B148006800F00200A6
:102A400020B12069012801D0012061E7AC4800686D
:102A500020F0F800616940EAC100A949086033E04C
:102A60002069E8B10120A7490860FFF751FD05463C
:102A700006E0FFF74DFD401B022801D9032047E780
:102A80009F48006800F002000028F2D09C480068CF
:102A900020F0F800616940EAC1009949086013E03C
:102AA000002098490860FFF733FD054606E0FFF770
:102AB0002FFD401B022801D9032029E79048006818
:102AC00000F002000028F2D1207800F00800082869
:102AD0002DD1A069B8B101208B490860FFF718FD1E
:102AE000054606E0FFF714FD401B022801D903202C
:102AF0000EE78348406A00F002000028F2D001206F
:102B000001F0B6FB13E000207F490860FFF700FDED
:102B1000054606E0FFF7FCFC401B022801D9032014
:102B2000F6E67748406A00F002000028F2D12078EB
:102B300000F00400042873D100277148C06900F038
:102B4000805070B900BF6E48C06940F080506C4939
:102B5000C8610846C06900F08050009000BF00BF07
:102B600001276A48006800F48070B0B967480068BF
:102B700040F4807065490860FFF7CAFC054606E02E
:102B8000FFF7C6FC401B642801D90320C0E65F485C
:102B9000006800F480700028F2D000BFE0680128CF
:102BA00006D15748006A40F001005549086227E005
:102BB000E06858B95248006A20F0010050490862A4
:102BC0000846006A20F00400086219E0E068052861
:102BD0000BD14B48006A40F004004949086208469E
:102BE000006A40F0010008620AE04548006A20F0EF
:102BF0000100434908620846006A20F004000862A8
:102C000000BFE068A0B1FFF783FC054609E0FFF7CD
:102C10007FFC401B41F28831884202D9032077E6CD
:102C200022E03748006A00F002000028EFD012E0EE
:102C3000FFF76EFC054608E0FFF76AFC401B41F217
:102C40008831884201D9032062E62D48006A00F0ED
:102C500002000028F0D1012F05D12948C06920F0D9
:102C600080502749C86100BFE069C8B32448406864
:102C700000F00C00082860D0E069022848D100204C
:102C800020490866FFF744FC054606E0FFF740FCD4
:102C9000401B022801D903203AE61948006800F0D9
:102CA00000700028F2D1206AB0F5803F07D11448A7
:102CB000406820F40030A168084311494860D4E915
:102CC000080108430E49496821F4741108430C496E
:102CD000486001200B490866FFF71AFC054607E02B
:102CE0003DE0FFF715FC401B022801D903200FE649
:102CF0000348006800F000700028F2D02FE00000C8
:102D00000010024000004242800442420070004035
:102D1000002014490866FFF7FBFB054606E0FFF7B5
:102D2000F7FB401B022801D90320F1E50E4800689B
:102D300000F000700028F2D111E0E069012800D114
:102D4000E6E50948466806F48031206A814204D1EC
:102D500006F47011606A814201D00120D8E500209C
:102D6000D6E50000000042420010024070B5044663
:102D70002546681EB0F1807F01D301200FE0681E58
:102D80004FF0E02148610F214FF0FF3002F07EF953
:102D900000204FF0E021886107200861002070BD0D
:102DA0007047704730B502460B4600BF92F83C00B2
:102DB000012801D1022030BD012082F83C0000BF73
:102DC000022082F83D00106844681068816824F091
:102DD00070041868044310684460104D1068A842DD
:102DE0000BD01068B0F1804F07D00D4D1068A8428D
:102DF00003D00C4D1068A84205D121F0800158681D
:102E0000014310688160012082F83D0000BF00206E
:102E100082F83C0000BF00BFCDE70000002C01405D
:102E2000000400400008004010B504460CB9012021
:102E300010BD94F83D0028B9002084F83C002046DD
:102E400000F026F8022084F83D00211D206801F0E2
:102E500085FA012084F8460000BF84F83E00012175
:102E60003F200155402001554120015500BF00BFC2
:102E7000012084F84200432001554420015545209B
:102E8000015500BF012084F83D000020D0E700007C
:102E900010B586B00446002002900390049005907F
:102EA0005049206888423DD100BF4F48806940F4B6
:102EB00000604D4988610846806900F40060019017
:102EC00000BF00BF00BF0846806940F00400886171
:102ED0000846806900F00400019000BF00BF88151B
:102EE0000290002003900120049002A93F48FFF7C0
:102EF0006FF9002211461820FFF790FB1820FFF70A
:102F00007DFB002211461920FFF788FB1920FFF7EF
:102F100075FB002211461B20FFF780FB1B20FFF7EB
:102F20006DFB5DE02068B0F1804F2DD100BF2E48D1
:102F3000C06940F001002C49C8610846C06900F032
:102F40000100019000BF00BF00BF0846806940F04B
:102F5000040088610846806900F00400019000BF09
:102F600000BF01200290002003900120049002A9DC
:102F70001E48FFF72DF9002211461C20FFF74EFBDB
:102F80001C20FFF73BFB2BE01949206888420DD13C
:102F900000BF1548C06940F002001349C8610846E7
:102FA000C06900F00200019000BF19E011492068DB
:102FB000884215D100BF0C48C06940F004000A499E
:102FC000C8610846C06900F00400019000BF00BF5E
:102FD000002211461E20FFF721FB1E20FFF70EFBEB
:102FE00006B010BD002C0140001002400008014056
:102FF0000004004000080040014691F83D0001280F
:1030000001D001207047022081F83D000868C068A7
:1030100040F001000B68D860124B086898420BD052
:103020000868B0F1804F07D00F4B0868984203D072
:103030000E4B086898420CD10868806800F00702BF
:10304000062A0CD00868006840F001000B68186080
:1030500005E00868006840F001000B681860002077
:10306000D0E70000002C01400004004000080040B0
:103070002DE9F04104460D46002700BF94F83C00BE
:10308000012802D10220BDE8F081012084F83C0033
:1030900000BF022084F83D002068866826F077068D
:1030A00026F47F46206886602868502833D00CDCE0
:1030B000202850D004DC00284BD0102851D149E002
:1030C000302849D040284CD139E060282DD07028D4
:1030D00007D0B0F5805F03D0B0F5005F41D10DE0BF
:1030E00041E0D5E902136A68206801F08AF9206896
:1030F000866846F077062068866034E0D5E90213DA
:103100006A68206801F07DF92068806840F480409A
:103110002168886027E0EA686968206801F042FA5F
:103120005021206801F078F91DE0EA68696820689C
:1031300001F080FA6021206801F06EF913E0EA687E
:103140006968206801F02EFA4021206801F064F9D6
:1031500009E000BF00BF00BF2968206801F05CF9EA
:1031600001E0012700BF00BF012084F83D0000BF3F
:10317000002084F83C0000BF384684E770B5044660
:1031800027492068884222D1207F01281FD10021B1
:10319000204600F0F1FB054622480068854203D333
:1031A00020480068281A05E01E4800684FF6FF71A5
:1031B000081A2844064642F21070864206D31A487E
:1031C0000068401C184908601648056000BF206868
:1031D000B0F1804F22D1207F01281FD1002120464D
:1031E00000F0CAFB054611480068854203D30F482A
:1031F0000068281A05E00D4800684FF6FF71081AAC
:103200002844064642F21070864206D308480068F9
:10321000401C074908600548056000BF70BD0000FC
:10322000002C0140000000200400002008000020C5
:103230000C0000202DE9F04104460D4616460027FB
:1032400000BF94F83C00012802D10220BDE8F081C3
:10325000012084F83C0000BF96B9EB68D5E9001264
:10326000206801F0B3F92068806920F00C00216823
:10327000886120688069A96808432168886141E005
:10328000042E13D1EB68D5E90012206801F0E6F9AD
:103290002068806920F44060216888612068806926
:1032A000A96840EA0120216888612BE0082E12D12C
:1032B000EB68D5E90012206801F0EDF92068C069DB
:1032C00020F00C002168C8612068C069A968084323
:1032D0002168C86116E00C2E13D1EB68D5E9001205
:1032E000206801F0F4F92068C06920F4406021688A
:1032F000C8612068C069A96840EA01202168C861E6
:1033000000E0012700BF002084F83C0000BF3846E1
:103310009CE710B504460CB9012010BD94F83D009F
:1033200028B9002084F83C00204600F025F802204F
:1033300084F83D00211D206801F010F8012084F878
:10334000460000BF84F83E0001213F200155402087
:1033500001554120015500BF00BF012084F8420003
:1033600043200155442001554520015500BF01204F
:1033700084F83D000020D0E7704700002DE9F043BD
:1033800004460D46002615B994F83E000BE0042DC6
:1033900002D13F20005D06E0082D02D14020005DF3
:1033A00001E04120005D804615B994F842000BE031
:1033B000042D02D14320005D06E0082D02D14420F7
:1033C000005D01E04520005D8146B8F1010F02D1AA
:1033D000B9F1010F02D00120BDE8F0831DB9022030
:1033E00084F83E000EE0042D03D102213F20015558
:1033F00008E0082D03D102214020015502E00221FE
:10340000412001551DB9022084F842000EE0042D30
:1034100003D102214320015508E0082D03D10221E8
:103420004420015502E002214520015535B1042D0B
:103430000BD0082D10D00C2D1CD114E02068C068D2
:1034400040F002002168C86016E02068C06840F0C3
:1034500004002168C8600FE02068C06840F00800E0
:103460002168C86008E02068C06840F0100021684A
:10347000C86001E0012600BF00BF06BB012229464B
:10348000206800F0ADFF1249206888420BD0206808
:10349000B0F1804F07D00F492068884203D00E4911
:1034A000206888420CD12068806800F00707062F4A
:1034B0000CD02068006840F001002168086005E039
:1034C0002068006840F0010021680860304683E70A
:1034D000002C0140000400400008004070B5044684
:1034E0002068C5682068066906F00200022819D124
:1034F00005F00200022815D1401F21680861012053
:1035000020772068806900F0030018B12046FFF79B
:1035100035FE05E0204600F0C3F8204600F077F9BC
:103520000020207706F00400042819D105F00400DB
:10353000042815D1C0432168086102202077206843
:10354000806900F4407018B12046FFF717FE05E0CF
:10355000204600F0A5F8204600F059F90020207719
:1035600006F00800082819D105F00800082815D130
:10357000C04321680861042020772068C06900F0FA
:10358000030018B12046FFF7F9FD05E0204600F0E2
:1035900087F8204600F03BF90020207706F0100065
:1035A000102819D105F01000102815D1C04321684A
:1035B0000861082020772068C06900F4407018B1C5
:1035C0002046FFF7DBFD05E0204600F069F82046C5
:1035D00000F01DF90020207706F0010048B105F049
:1035E000010030B16FF0010021680861204600F051
:1035F00079F906F08000802809D105F08000802844
:1036000005D1C043216808612046FFF7C9FB06F0D9
:103610004000402809D105F04000402805D1C043B2
:1036200021680861204600F0C0F906F0200020283B
:1036300009D105F02000202805D1C0432168086188
:103640002046FFF7AEFB70BD10B586B004460020E3
:1036500002900390049005900E492068884217D18B
:1036600000BF0D48806940F004000B49886108469E
:10367000806900F00400019000BF00BF402002906C
:10368000022003900120059002A90448FEF7A0FD46
:1036900006B010BD000400400010024000080140C8
:1036A00070472DE9F04104460D461646002700BF3D
:1036B00094F83C00012802D10220BDE8F0810120ED
:1036C00084F83C0000BF36B1042E1BD0082E31D048
:1036D0000C2E5ED145E02946206800F0A7FE206848
:1036E000806940F00800216888612068806920F0C6
:1036F000040021688861206880692969084321687D
:10370000886148E02946206800F0C0FE2068806992
:1037100040F40060216888612068806920F480603E
:103720002168886120688069296940EA0120216850
:10373000886130E02946206800F0DCFE2068C0691E
:1037400040F008002168C8612068C06920F00400CA
:103750002168C8612068C069296908432168C86177
:1037600019E02946206800F0F9FE2068C06940F49D
:1037700000602168C8612068C06920F48060216809
:10378000C8612068C069296940EA01202168C861D0
:1037900001E0012700BF00BF00BF002084F83C000B
:1037A00000BF384689E710B504460CB9012010BDAA
:1037B00094F83D0028B9002084F83C00204600F031
:1037C00025F8022084F83D00211D206800F0C6FD88
:1037D000012084F8460000BF84F83E0001213F200C
:1037E0000155402001554120015500BF00BF012077
:1037F00084F84200432001554420015545200155DD
:1038000000BF012084F83D000020D0E770477047DA
:1038100070B504460D4615B994F83E000BE0042D32
:1038200002D13F20005D06E0082D02D14020005D5E
:1038300001E04120005D012801D0012070BD1DB9CB
:10384000022084F83E000EE0042D03D102213F2027
:10385000015508E0082D03D102214020015502E066
:1038600002214120015501222946206800F0B8FDBF
:1038700019492068884201D1012000E0002028B1C8
:103880002068406C40F40040216848641249206878
:1038900088420BD02068B0F1804F07D00F492068D4
:1038A000884203D00E49206888420CD12068806885
:1038B00000F00706062E0CD02068006840F00100DA
:1038C0002168086005E02068006840F00100216878
:1038D00008600020B2E70000002C01400004004016
:1038E0000008004010B504461C492068884233D1C6
:1038F0001B480068401C1A490860084600681949BE
:103900000968884207D3012017490870002014492C
:10391000086001F0CBF94FF07E511448006802F0C6
:103920007FFA06D94FF07E511148006802F078FA0C
:1039300009D84FF400410F4801F0D6FC40210D4852
:1039400001F0CAFC08E040210A4801F0CDFC4FF428
:103950000041084801F0C0FC10BD00000008004014
:103960001400002018000020100000202800002073
:103970002C000020000C01400246002031B1042937
:1039800007D0082908D00C290CD108E01368586B1F
:1039900009E01368986B06E01368D86B03E01368BE
:1039A000186C00E000BF00BF704770477047704759
:1039B0002DE9F84F0446206805682068C66820682D
:1039C00047694FF00009CA4605F00F09B9F1000F29
:1039D0000AD105F0200038B106F0200020B12046C1
:1039E00000F0E3FEBDE8F88FB9F1000F7BD007F0DF
:1039F000010018B906F49070002874D005F0010099
:103A000030B106F4807018B1606C40F00100606461
:103A100005F0040030B107F0010018B1606C40F00F
:103A20000200606405F0020030B107F0010018B137
:103A3000606C40F00400606405F0080048B106F0D6
:103A4000200010B907F0010018B1606C40F00800C8
:103A50006064606C002845D005F0200028B106F0B5
:103A6000200010B1204600F0A0FE20684069C0F39D
:103A7000801A606C00F0080010B9BAF1000F2CD069
:103A8000204600F04CFE2068406900F0400000B382
:103A900000BF00BF2168143151E8001F21F0400031
:103AA0002168143141E80002002AF3D100BFE06B25
:103AB00050B17748E16B4863E06BFEF731FB88B1AA
:103AC000E06B416B88470DE02046FFF770FF09E08F
:103AD00009E02046FFF76BFF04E02046FFF767FF91
:103AE000002060647EE7206B012877D105F010008C
:103AF000002873D006F010000028FAD000BF002084
:103B0000009020680068009020684068009000BF26
:103B100000BF2068406900F0400000285FD0E06BE3
:103B2000006840681FFA80F8B8F1000F55D0A08DEA
:103B3000404552DDA4F82E80E06B8069202843D0F8
:103B400000BF00BF21680C3151E8001F21F48070D4
:103B500021680C3141E80002002AF3D100BF00BF08
:103B600000BF2168143151E8001F21F001002168D5
:103B7000143141E80002002AF3D100BF00BF00BFAA
:103B80002168143151E8001F21F0400021681431F0
:103B900041E80002002AF3D100BF202084F842004F
:103BA0000020206300BF00BF21680C3151E8001FD6
:103BB00021F0100021680C3141E80002002AF3D105
:103BC00000BFE06BFEF780FA02206063A08DE28DFB
:103BD000801A81B22046FFF7E9FE03E742E0A08D9C
:103BE000E18D401A1FFA80F8E08DD0B3B8F1000FD4
:103BF00037D000BF00BF21680C3151E8001F21F40D
:103C0000907021680C3141E80002002AF3D100BF16
:103C100000BF00BF2168143151E8001F21F00100EE
:103C20002168143141E80002002AF3D100BF2020AE
:103C300084F842000020206300BF00BF21680C31DF
:103C400051E8001F21F0100021680C3141E800020A
:103C5000002AF3D100BF0220606341462046FFF7EF
:103C6000A5FEBFE605F0800030B106F0800018B177
:103C7000204600F015FFB5E605F0400030B106F033
:103C8000400018B1204600F080FDABE600BFA9E679
:103C90000B47000810B504460CB9012010BDA069FF
:103CA00000B100E000BF94F8410028B9002084F87A
:103CB0004000204600F02AF8242084F841002068C3
:103CC000C06820F400502168C860204600F026FE3D
:103CD0002068006920F490402168086120684069EC
:103CE00020F02A00216848612068C06840F4005034
:103CF0002168C86000206064202084F8410084F8B6
:103D000042000020606300BFC8E7000010B586B025
:103D10000446002002900390049005901D492068FD
:103D2000884235D100BF1C48C06940F400301A49B0
:103D3000C8610846C06900F40030019000BF00BFB0
:103D400000BF0846806940F0040088610846806929
:103D500000F00400019000BF00BF04200290022088
:103D600003900320059002A90C48FEF731FA0820C1
:103D7000029000200390049002A90848FEF728FA58
:103D8000002211462620FEF749FC2620FEF736FCCD
:103D900006B010BD00440040001002400008014081
:103DA00070B504460D46164694F8420020280BD103
:103DB00005B10EB9012070BD0020206332462946AE
:103DC000204600F035FEF6E70220F4E710B5044681
:103DD000FEF79EFB23490860012023490870234910
:103DE000206888423CD1224800785C281AD1002102
:103DF0002048214A1278815401F014F81F480078B5
:103E0000012805D100201D49087000F05BFD01E08C
:103E100000F06EFD00F048FD0020174908701249BF
:103E2000087018E0144800783F280ADA1048017832
:103E3000114802780078401C0F4B18700D488154CF
:103E400009E000F031FD01200C490870002006490E
:103E5000087009490870012205490948FFF7A0FFC9
:103E600010BD0000480000204C000020004400402D
:103E700045000020600000204400002030000020A9
:103E8000C00100202DE9F84F04460E46174699461A
:103E90004FF0000A94F84100202850D106B117B91C
:103EA0000120BDE8F88F00206064212084F84100E3
:103EB000FEF72EFB8246A784E784A068B0F5805FFA
:103EC00004D1206910B90025B04602E035464FF014
:103ED00000081EE05346002280212046CDF80090C5
:103EE00000F00EFE20B1202084F841000320D8E726
:103EF00045B9B8F80000C0F308002168486008F12F
:103F0000020803E02878216848606D1CE08C401EA0
:103F1000E084E08C0028DDD1534600224021204679
:103F2000CDF8009000F0ECFD20B1202084F8410095
:103F30000320B6E7202084F841000020B1E70220EA
:103F4000AFE7704700BFFEE700B585B000200190E5
:103F500002900390049000BF1D48806940F020004B
:103F60001B4988610846806900F02000009000BF6E
:103F700000BF00BF0846806940F004008861084621
:103F8000806900F00400009000BF00BF00BF084639
:103F9000806940F0080088610846806900F00800E8
:103FA000009000BF00BF012248F240010948FEF71F
:103FB000A9FA48F2400001900120029003900220EB
:103FC000049001A90348FEF703F905B000BD000005
:103FD00000100240000C014000B58BB0002007909B
:103FE000089009900A900590069001900290039025
:103FF00004901F481F4908604720486000211D4861
:1040000081604FF6FF71C1600021016141618161F2
:10401000FEF70AFF08B1FEF754F84FF480500790FE
:1040200007A91448FFF724F808B1FEF74AF8114829
:10403000FFF76FF908B1FEF744F8002005900690ED
:1040400005A90C48FEF7AEFE08B1FEF73AF80220CB
:10405000019001200290002003900490002201A909
:104060000448FFF7E7F808B1FEF72BF80BB000BDE6
:10407000002C0140A000002000B58BB0002007906C
:10408000089009900A900590069001900290039084
:1040900004904FF080401E4908604720486000218E
:1040A0001B4881604FF6FF71C16000210161816191
:1040B000FEF7BAFE08B1FEF704F84FF480500790FF
:1040C00007A91348FEF7D4FF08B1FDF7FAFF10481F
:1040D000FFF71FF908B1FDF7F4FF002005900690E7
:1040E00005A90B48FEF75EFE08B1FDF7EAFF0220C6
:1040F000019001200290002003900490002201A969
:104100000348FFF797F808B1FDF7DBFF0BB000BDE0
:10411000E800002000B58DB0002009900A900B90B7
:104120000C90079008901C216846FCF7F2F9214892
:10413000214908600020486000211F48816041F645
:104140001F41C160002101618161FEF76DFE08B170
:10415000FDF7B7FF4FF48050099009A91648FEF704
:1041600087FF08B1FDF7ADFF1348FFF71CFB08B14F
:10417000FDF7A7FF00200790089007A90E48FEF75B
:1041800011FE08B1FDF79DFF6020009041F663101D
:104190000190002002900490002269460648FFF733
:1041A00080FA08B1FDF78DFF0348FFF74DFA0DB017
:1041B00000BD0000000400403001002000B587B0C1
:1041C00000200390049005900690019002901548FD
:1041D0001549086041F61F4048600021124881607F
:1041E00042F20F71C160002101618161FEF71CFE86
:1041F00008B1FDF766FF4FF48050039003A90A4809
:10420000FEF736FF08B1FDF75CFF00200190029039
:1042100001A90548FEF7C6FD08B1FDF752FF07B03A
:1042200000BD0000000800407801002010B50B48D8
:104230000B4908604FF4E130486000210848816074
:10424000C16001610C21416100218161C161FFF701
:1042500021FD08B1FDF735FF10BD0000004400400E
:10426000C001002000BFFEE700BFFEE7704700006E
:1042700008B508490968C9084FF47A72B1FBF2F130
:104280004143009100BF00BF00994A1E00920029DF
:10429000F9D108BD5C000020704710B5FEF73EF96B
:1042A00010BD00B58FB0282105A8FCF732F9142104
:1042B0006846FCF72EF901200590000406900020C6
:1042C00007900120099002200C90C1030D914FF43A
:1042D000E0110E9105A8FEF717FB08B1FDF7F1FEFE
:1042E0000F20009002200190002002904FF4806087
:1042F00003900020049002216846FEF7E1F908B11E
:10430000FDF7DFFE0FB000BD7047000010B502489A
:10431000FFF7E4F810BD0000A000002010B502482F
:10432000FFF7DCF810BD0000A000002010B5024827
:10433000FFF7D4F810BD0000A000002010B502481F
:10434000FFF7CCF810BD0000E800002010B50248CF
:10435000FFF7C4F810BD00007801002010B5026816
:104360001C4B984208D0B0F1804F05D01A4B9842B0
:1043700002D01A4B984203D122F070024B681A43C4
:10438000144B984208D0B0F1804F05D0124B9842A0
:1043900002D0124B984203D122F44072CB681A43E8
:1043A00022F080034C6943EA040202608B68C36216
:1043B0000B688362074B984201D10B6903630123A9
:1043C0004361036903F001031BB1036923F0010397
:1043D000036110BD002C01400004004000080040B3
:1043E00030B501F01F05012404FA05F3046A9C436B
:1043F0000462046A01F01F0502FA05F52C43046209
:1044000030BD30B50C46816821F47F4142EA032576
:1044100025432943816030BD0A46816821F070013F
:1044200042F00703194381607047000030B5026A0B
:10443000056A25F0010505624368846924F070046B
:1044400024F003040D682C4322F002028D682A43F5
:104450000D4DA84206D100BF22F00802CD682A43C4
:1044600022F00402084DA84207D123F4807323F4FC
:1044700000734D692B438D692B43436084614D6804
:104480004563026230BD0000002C014030B5026A75
:10449000056A25F0100505624368846924F4E04448
:1044A00024F440740D6844EA052422F020028D684B
:1044B00042EA05120E4DA84207D100BF22F0800249
:1044C000CD6842EA051222F04002094DA84209D106
:1044D00023F4806323F400634D6943EA85038D6907
:1044E00043EA8503436084614D688563026230BDA1
:1044F000002C014030B5026A056A25F4807505621A
:104500004368C46924F0700424F003040D682C434C
:1045100022F400728D6842EA05220F4DA84207D1AD
:1045200000BF22F40062CD6842EA052222F48062D4
:10453000094DA84209D123F4805323F400534D6957
:1045400043EA05138D6943EA05134360C4614D686E
:10455000C563026230BD0000002C014030B5036A23
:10456000056A25F4805505624468C26922F4E04278
:1045700022F440720D6842EA052223F400538D684C
:1045800043EA0533064DA84204D124F480444D6922
:1045900044EA85144460C2614D680564036230BD1D
:1045A000002C014030B50B461446026A056A25F01E
:1045B00001050562816921F0F00141EA041122F050
:1045C0000A021A438161026230BD000070B50C46D8
:1045D0001546026A066A26F0010606628169124ED5
:1045E000B04208D0B0F1804F05D0104EB04202D09A
:1045F0000F4EB04201D1012600E000261EB121F08D
:104600000301294301E041F0010121F0F001F0260E
:1046100006EA0316314322F00A0204F00A06324386
:104620008161026270BD0000002C01400004004066
:104630000008004030B50B461446026A056A25F0B2
:1046400010050562816921F4704141EA043122F0CC
:10465000A00242EA03128161026230BD70B50C46CD
:104660001546026A066A26F010060662816921F480
:10467000407141EA052121F470414FF4704606EA89
:104680000336314322F0A002A02606EA0416324384
:104690008161026270BD70B50C461546026A066AF9
:1046A00026F480760662C16921F00301294321F0D6
:1046B000F001F02606EA0316314322F400724FF4AB
:1046C000007606EA04263243C161026270BD70B50D
:1046D0000C461546026A066A26F480560662C169CF
:1046E00021F4407141EA052121F470414FF47046F4
:1046F00006EA0336314322F400524FF4005606EA2C
:1047000004363243C161026270BD70B505466C6A01
:104710000020E085E0842046FFF749F970BD00BF26
:1047200000BF02680C3252E8002F22F49071026838
:104730000C3242E80013002BF3D100BF00BF00BFD2
:104740000268143252E8002F22F00101026814328C
:1047500042E80013002BF3D100BF016B01290ED1F9
:1047600000BF00BF02680C3252E8002F22F0100197
:1047700002680C3242E80013002BF3D100BF202165
:1047800080F8421000210163704710B5044620688C
:10479000C06820F040002168C860202084F84100F3
:1047A0002046FFF7CEFB002010BDF8B5044694F874
:1047B0004200222875D1A068B0F5805F0CD1206935
:1047C00050B90025A66A20684068C0F30800308010
:1047D000A06A801CA06215E0A56A0026A068B0F55A
:1047E000805F03D0A06828B9206918B920684068A4
:1047F000287004E02068406800F07F002870A06AFC
:10480000401CA062E08D401E80B2E085002846D1A9
:104810002068C06820F020002168C8602068C06857
:1048200020F480702168C8602068406920F0010091
:1048300021684861202084F8420000206063206BDA
:10484000012826D10020206300BF00BF21680C3161
:1048500051E8001F21F0100021680C3141E80002EE
:10486000002AF3D100BF2068006800F01000102873
:104870000AD100BF002000902068006800902068E6
:104880004068009000BF00BFA18D2046FFF78EF862
:1048900002E02046FFF79AFA0020F8BD01E0002070
:1048A000FBE70220F9E7000010B540210348FBF7C1
:1048B0000EFE00200249087010BD000060000020BC
:1048C0004400002010B54FF0FF33122202A1074828
:1048D000FFF7D8FA10BD00000D0A204D4553534193
:1048E00047455F494E56414C49440000C0010020F5
:1048F00010B54FF0FF33102202A10748FFF7C2FAAC
:1049000010BD00000D0A204D4553534147455F56E9
:10491000414C494400000000C001002070B504462D
:104920002168096921F44051E2681143226811614C
:104930002269A1681143626941EA02052168C968D8
:1049400041F20C62914329432268D1602168496990
:1049500021F44071A2691143226851612D4A2168F6
:10496000914202D1FDF788FF01E0FDF775FF00EBF2
:10497000C00101EB001162689200B1FBF2F100EBA3
:10498000C00202EB001263689B00B2FBF3F26423E7
:10499000B2FBF3F202EBC20303EB0212A1EB8201C2
:1049A000322202EB01116422B1FBF2F101F0F001BD
:1049B00000EBC00202EB001263689B00B2FBF3F253
:1049C0006423B2FBF3F201EB021200EBC00101EB36
:1049D000001163689B00B1FBF3F100EBC00303EB34
:1049E00000136668B600B3FBF6F36426B3FBF6F378
:1049F00003EBC30606EB0313A1EB8301322303EBA6
:104A000001116423B1FBF3F101F00F01114422689D
:104A1000916070BD0038014010B501220249034881
:104A2000FFF7BEF910BD000045000020C0010020C6
:104A300010B5034699629A85DA85002058642220D1
:104A400083F84200186928B11868C06840F4807083
:104A50001C68E0601868406940F001001C686061F3
:104A60001868C06840F020001C68E060002010BD9D
:104A700010B50948007870B1FDF74AFD074909688B
:104A8000401AB0F5967F06D9FFF70EFFFFF71AFF21
:104A900000200149087010BD4C0000204800002093
:104AA000014691F84100212828D18868B0F5805F3F
:104AB0000BD1086948B90A6A1088C0F308000B686E
:104AC0005860086A801C086205E00B6A581C08627E
:104AD00018780B685860C88C401E80B2C88458B9DA
:104AE0000868C06820F080000B68D8600868C0685B
:104AF00040F040000B68D860002070470220FCE7BF
:104B00002DE9F84304460D4617469846089E31E0C5
:104B1000701C70B3FDF7FCFCA0EB0800B04200D89D
:104B200016B90320BDE8F8832068C06800F00400CF
:104B3000F8B1802D1ED0402D1CD020680068C0F335
:104B4000C000B0B100BF0020009020680068009055
:104B500020684068009000BF00BF2046FFF7DFFDDF
:104B60000820606400BF002084F8400000BF0120DE
:104B7000D8E7FFE7206800682840A84201D101205B
:104B800000E00020B842C3D00020CBE710B50248B7
:104B9000FEF70EFF10BD0000C001002007480068AE
:104BA0000749086000200549086006480068064972
:104BB00008600020034908607047000004000020DE
:104BC000200000200C000020240000202DE9F047E8
:104BD0001448006801F010F80446134901F054F835
:104BE000124908601248006800F0DEFC0646114ACF
:104BF000114B00F029FD04464FF066320F4B00F0D8
:104C000057FE804600F0A6FB0D49086000210C48C5
:104C1000006801F005F802D2002009490860BDE8EB
:104C2000F0870000200000205B94593B2800002002
:104C3000240000209A9999999999F33F661671403A
:104C40002C00002070B51548006800F0D5FF06461E
:104C500013480168304601F017F80546114801680D
:104C6000284600F03BFF044600F0A6FF0B49086011
:104C70000D48006800F0C0FF06460948016830464C
:104C800001F002F8054607480168284600F026FFB3
:104C9000044600F091FF0449086070BD2000002028
:104CA0003C00002040000020240000202DE9F041BD
:104CB000A6B037480078012867D1FFF76FFF00F0F2
:104CC0005FF9FFF7BFFFFFF781FF32480078B8B9FF
:104CD00031A43348006800F0D5FE32A28DE81300FD
:104CE000802106A8FBF786FA06A8FBF786FB85B2AB
:104CF0004FF0FF332A4606A93648FFF7C3F83AE0DB
:104D000024480078012817D133A43448006800F003
:104D1000B9FE33A28DE81300802106A8FBF76AFADA
:104D200006A8FBF76AFB85B24FF0FF332A4606A9B7
:104D30002848FFF7A7F81EE035A41948006800F0DE
:104D4000A1FE05460E462548006800F09BFE324A4B
:104D50008DE863000494802106A8FBF74BFA06A8AF
:104D6000FBF74BFB85B24FF0FF332A4606A91948E3
:104D7000FFF788F800BF002028490860284908602C
:104D8000074908601549086000BF26B0BDE8F081FA
:104D9000100000201C0000204745494745520000F4
:104DA000280000207B0D0A20226765696765722252
:104DB0003A20252E37662C0D0A2022637572726503
:104DC0006E745F6D6F6465223A20222573220D0A8E
:104DD0007D0D0A00C0010020425000002C00002080
:104DE0007B0D0A20226270773334223A20252E3739
:104DF000662C0D0A202263757272656E745F6D6F8A
:104E00006465223A20222573220D0A7D0D0A0000D6
:104E1000424F544800000000346100082000002088
:104E20002400002038B5044635A12046FBF798FB46
:104E300018B900203749087061E037A12046FBF718
:104E40008FFB18B901203349087058E037A120467C
:104E5000FBF786FB18B902202E4908704FE00C22A0
:104E600037A12046FBF7E8FAA8B90A22694604F1FF
:104E70000C00FBF789FA05460098007838B93C2DFC
:104E800005D3B5F5616F02D83148056002E0012015
:104E90003049087033E00D222FA12046FBF7CCFAF1
:104EA000A0B9694604F10D0000F00CFA054600981F
:104EB000007838B90021284600F0B2FF02D22A4813
:104EC000056002E001202349087018E00D2227A1A7
:104ED0002046FBF7B1FA78B9694604F10D0000F0FD
:104EE000F1F905460098007810B92448056002E001
:104EF00001201849087002E001201649087038BDE9
:104F000053454E534F525F4745494745525F4F4EB9
:104F10004C5900001C00002053454E534F525F4235
:104F2000505733345F4F4E4C5900000053454E5399
:104F30004F525F4745494745525F4250573334000F
:104F400053454E534F525F465245515F000000009B
:104F5000180000203000002053454E534F525F434D
:104F6000414C42415F0000003C00002053454E533D
:104F70004F525F43414C42425F000000400000201E
:104F800070B5214801684FF07C5000F07DFE054669
:104F90001E48006800F030FE06464FF07C5100F0DD
:104FA00073FE0446294600F099FD174908604FF04A
:104FB0007C511548006800F091FD044600F0FCFDAE
:104FC00012490860124801684FF07C5000F05CFE06
:104FD00005461048006800F00FFE06464FF07C5171
:104FE00000F052FE0446294600F078FD08490860AA
:104FF0004FF07C510648006800F070FD044600F058
:10500000DBFD0449086070BD340000202000002052
:10501000380000202400002010B500210148FEF7D0
:10502000F7FB10BD3001002010B500210548FEF748
:10503000A5F900210448FEF7A1F90448FDF7DCFFBB
:1050400010BD0000A0000020E80000207801002032
:1050500000BFFEE7490050EAC12018BF04204A0DF6
:1050600018BF40F0010040F2FF72B2EB515F08BF81
:1050700040F00200012808BF052070470248006880
:10508000C0F30220704700000CED00E010B50028CE
:1050900004DB0A07130E054A135406E00A07140E30
:1050A000034A00F00F031B1FD45410BD00E400E0BE
:1050B00018ED00E040F2013200204FF0E04100F036
:1050C0008DBF0000024A0020110700F087BF0000DA
:1050D00001FDFFFF10B50446D1E9000100F002F820
:1050E000206010BDF8B504460D466A4600F06AF827
:1050F00000987E30009000281EDC002213462046D7
:10510000294600F015FA17D0002140F608004FF0AC
:10511000000006462046294600F01CF9044640F6E9
:10512000080006EA00014FF0000034F0004004BF20
:105130000220FBF797FE29E00098FF2828DB0021DA
:1051400008464FF0000000F44006002213462046B7
:10515000294600F077FB8CBF002501250220FBF7D4
:1051600081FE4FF0FF4446B1002D0CBF4FF400000C
:105170004FF48000B04218BF084C042108464FF09D
:105180000000002D04BF84F00040F8BD2046F8BDAB
:1051900020462946BDE8F84000F0DCB8FFFF7F7FDD
:1051A00010B504460A46D4E90003194600F036F863
:1051B000C4E9000110BD30380A2801D2012070472F
:1051C0000020704710B5144600222260114A21F0D9
:1051D00000439342A8BF10BD53EA000208BF10BDB0
:1051E000B3F5801FA8BF226807DA362200F0F6FE6A
:1051F0006FF0350221F000432260DFF81CC06FF32E
:105200001E510CEB23531A4441F0FF5141F0005161
:10521000226010BD0000F07F02FCFFFF2DE9F0418D
:1052200006460C4640F2FF75174635EA14502BD05F
:1052300000221346304600F07BF925D03A4630462E
:10524000214600F0CBFE06460C4635EA145010D03D
:1052500000221346304600F06BF915D10220FBF70F
:1052600001FEFFF72FFF0A46214662F31E01BDE84B
:10527000F0810220FBF7F6FDFFF71CFF0A462146EE
:1052800062F31E01BDE8F08130462146BDE8F081A1
:10529000FDF750F9FFF705F8FEF756FEFEF7C6FFDB
:1052A000FEF79AFEFEF7E8FEFEF734FFFEF786FFF4
:1052B000FFF7B2FEFFF7B8FEFFF7AEFB01E0FFF726
:1052C000D7FBFCE708B50A46002100910146684675
:1052D000FBF730FC009808BD70B504460D46294622
:1052E0002046FDF705F970BD70B504460D46002255
:1052F00029462046FDF706F970BD000010B50029CB
:105300000AD00878002807D005487844FBF728F928
:10531000002801D0002010BD0248784410BD0000D4
:105320009E0E0000960E000010B500290AD00878E5
:10533000002807D005487844FBF712F9002801D06F
:10534000002010BD0248784410BD0000820F00000C
:105350007A0F000021F00042A2F16052B2F5801FE6
:1053600001F0004328BFD2F17F6C0BD95FEA001C2B
:1053700043EAC20242EB507018BF704728BF20F0CA
:1053800001007047B2F5801FBCBF184670474FEA56
:10539000410C1CF5001F02D2084600F03CBD70B560
:1053A00000F0FCF900000089FFF7F6BF4FF0004065
:1053B000A0F580007047000010B591EA030F48BFC8
:1053C00083F0004300F17C82841A71EB030C05D258
:1053D000121943EB0C03001B61EB0C01DFF824E115
:1053E0004FEA1154A4EB135C1EEA430F18BF9EEA68
:1053F000445F73D023EA0E03DCF1200E21EA04514E
:1054000043F4801332D322FA0CFE10EB0E0023FA81
:105410000CFE41EB0E01CCF1200E03FA0EFE10EB58
:105420000E0051F10001B1F5801FCCF1200E32D2F7
:1054300001EB045112FA0EF2BDE8104058BF70475C
:10544000401C38BF5FEA420218BF7047002814BFF3
:1054500020F0010041F100014FEA410313F5001F64
:1054600038BF7047A1F1C04100F0E6B9012A43EB13
:105470000302ACF1200CDCF11F0E32BF4FF0000E26
:1054800023FA0CF310EB030041EB0451B4EB115F72
:10549000D0D0A1EB045101F5801149085FEA30003A
:1054A00001EB04510ED350F1000038BF12FA0EFE8A
:1054B00008D1BDE81040C9E7401C38BF5FEA42028E
:1054C000CAD1C3E7BDE810404FEA410313F5001FFE
:1054D00038BF7047A1F1C04100F0AEB99EEA445F09
:1054E00008D011EA5E0FBDE8104004BF01F0004192
:1054F00000207047BDE8104070B500F04FF900BFC4
:1055000064FBBE3E0000E0FF02494FF0000000F0E7
:1055100033BD00BF0000F87F491058BFC1F14041C2
:105520005B1058BFC3F140438B42EFF300807047DC
:1055300051EA030C17D41CF5801F58BFBCF5801F1F
:1055400000F10680994218BF704708BF904270472B
:1055500007D711F5801F58BF13F5801F19D4994242
:105560007047894270471CF5801F08D5BCF5801F25
:10557000F7D58B4218BF704708BF824270474FF47F
:10558000001C1CEB410F38BF1CEB430F01D28B42B8
:10559000704770B500F002F9922449004FF00051B5
:1055A0004FF08053FFF7B8BFB0FA80F310FA03F161
:1055B0000AD0C3F11D0303F580634FEA41504FEA5F
:1055C000035202EBD12170474FF0000070470000FA
:1055D00051EA030C17D41CF5801F58BFBCF5801F7F
:1055E00000F10680994218BF704708BF904270478B
:1055F00007D711F5801F58BF13F5801F19D49942A2
:105600007047894270471CF5801F08D5BCF5801F84
:10561000F7D58B4218BF704708BF824270474FF4DE
:10562000001C1CEB410F38BF1CEB430F01D28B4217
:10563000704770B500F0B2F8922449004FF0005165
:105640004FF08053FFF768BFDFF848C170B51CEA20
:10565000111E1EBF1CEA13159EEA0C0F95EA0C0FD3
:1056600000F06F8081EA030423EA4C134EEAD47EF3
:1056700021EA4C1141F4801143F48013AE44A1FBA4
:10568000024CA0FB0365AEF17F7E361955EB0C058D
:10569000A1FB034C4CF10003A0FB021C16EB0C0613
:1056A000654153F10003094218BF46F0010613F4A7
:1056B000007F0BD14FEA03314FEA0530340341EA52
:1056C000155140EA16506FF003020AE04FEAC32179
:1056D0004FEAC520F40241EA555140EA56506FF0B6
:1056E000020202EB2E4201EB025585EACE710AD08E
:1056F0005FEA440C18BF24F0004450F1000041F16F
:10570000000120EAD47040F2FE7C624500D270BDF8
:10571000A84214BF4FF080444FF04044002E08BF11
:105720000024BEF1806FA8BFA1F1C041BDE8704068
:1057300080F282804FF0000001F1C04101F0004191
:1057400070479EEA0C0F0CEA131518BF95EA0C0F70
:1057500006D04FF0000081EA030E0EF0004170BD4C
:1057600000F01CF88900013E00F007B800F009B80D
:105770004FEA430C5FEA5C5C08D081EA030100F069
:105780005BB84FEA410C5FEA5C5CF6D14FF0000079
:10579000014970470000FF070000F87F0EF1020E7C
:1057A0002EF0030E5EF8046B364205D4012A43EB5B
:1057B000030515F5001F12D8012841EB010C1CF55B
:1057C000001F0CD80ED14FEAD17C15F5001F0CEB51
:1057D0004C0C0CF1020C08BF4CEBD37C04E04FF0F6
:1057E000080C01E04FEAD37C0CEB4C0526FA05F6D9
:1057F00006F00706B6F1040C06D20EEB860CBDE8E7
:1058000070404CF0010C6047DFE80CF0090B02021D
:105810004FF000414FF00000A1F5002170BD194686
:105820001046012851EB010418BFD4F5001484BFC1
:10583000002001F0004170BD0808A0F500114FEAFA
:105840003101704753EA010C17D41CF5801F58BF73
:10585000BCF5801F00F106808B4218BF704708BF5F
:105860008242704707D713F5801F58BF11F5801F7C
:1058700019D48B4270479B4270471CF5801F08D596
:10588000BCF5801FF7D5994218BF704708BF9042FA
:1058900070474FF4001C1CEB430F38BF1CEB410F4B
:1058A00001D2994270470FB40CBC03BCFFF7C1BED4
:1058B00010B591EA030F48BF83F000433FF584AD74
:1058C000841A71EB030C07D212198CF0004C43EBD5
:1058D0000C03001B61EB0C01DFF8A4E14FEA11544B
:1058E000A4EB135C1EEA430F18BF9EEA445F00F06E
:1058F000B08023EA6E03524221EA0451C3EB6E03E7
:1059000038BF5B1EDCF1200E25D322FA0CFE10EB13
:105910000E0043FA0CFE41EB0E01CCF1200E03FA0F
:105920000EFE10EB0E0051F10001CCF1200E29D437
:1059300012FA0EF201EB0451BDE8104058BF704757
:10594000401C1CBFB2F1004F704700280CBF491C1F
:1059500020F00100704712EB020E43EB030218BF68
:105960004FF0010E4EEA4202ACF1200CDCF11E0EAB
:1059700054D943FA0CFE10EB0E0051F1FF31CCF17B
:105980001E0ED5D50EF1010E12FA0EFE404141EB6E
:10599000010101EB445C5FEA5C5C10D910EBDE7046
:1059A00001EB045138BFBEF1004FBDE8104018BFF5
:1059B000704700280CBF491C20F00100704730D20E
:1059C0004FEAD42C11F5001124F400641BD0B1FA75
:1059D00081F20B3AA41AA41ED2F12003914030FAAE
:1059E00003F31943904001EBCC71002C01EB0451FF
:1059F000BDE81040A8BF704701F1C0414FF0000062
:105A000001F000417047B0FA80F310FA03F100D1C1
:105A100010BDE41A173C4805C90AE4E701EB04513C
:105A200010BD491001EB0451BDE810404FEA3000B1
:105A300002E04FF0000170474A0008BF0042F8D072
:105A4000B2F5001F28BF704701F000414FF0000081
:105A500070479EEA445F07D011EA5E0FBDE8104030
:105A600004BF002100207047BDE8104070B5FFF76B
:105A700095FE00BF40DFF63E83F0004110467047C0
:105A80000000E0FF43004FEAD30C4FEA3C0C4340D8
:105A90001FBF40070CF1605113F0FE4F70471CF020
:105AA000006F03D100200CF0004170470CF0004360
:105AB00043EA507010B540EACC0000F066F900BF30
:105AC000000000924FEA0001FFF7B6BE4FF0004120
:105AD0004FF00000A1F500217047000090EA010F8F
